:100000000C9468000C9490000C9490000C94900058
:100010000C9490000C9490000C9490000C94900020
:100020000C9490000C9490000C9409140C94900083
:100030000C9490000C949C140C9490000C949000E0
:100040000C942A170C9490000C9492190C94C419D7
:100050000C9490000C9490000C9490000C949000E0
:100060000C9490000C9490007C3C3E5E2B3D3F2F06
:100070005B5D3B2C2A225C000000000800020100AE
:100080000003040700000000000000000102040853
:1000900010204080010204081020010204081020F2
:1000A000040404040404040402020202020203031E
:1000B0000303030300000000250028002B000000BC
:1000C0000000240027002A00E50330072617F41952
:1000D00011241FBECFEFD8E0DEBFCDBF11E0A0E0FE
:1000E000B1E0E8E9F8E302C005900D92A636B10749
:1000F000D9F725E0A6E6B1E001C01D92A531B2070F
:10010000E1F710E0C0EDD0E004C02297FE010E94AC
:10011000E91AC83CD107C9F70E94381A0C944A1C46
:100120000C94000089E08093660126E040E855E2E7
:1001300060E070E084E794E00E94361964E082E7B2
:1001400091E00E943E02811106C06BE171E084E7FC
:1001500094E00C94891A63E271E086E691E00C94D5
:1001600021170895CF93CFB7F89480917101811131
:1001700027C0EAEAF0E08491E6E9F0E09491E82F04
:10018000F0E0EE0FFF1FE254FF4FA591B4918C9168
:10019000892321F461E08AE00E941D1861E08AE071
:1001A0000E94E4178CB580618CBD8CB580648CBDD9
:1001B00061E08DE00E94E41761E08BE00E94E417AB
:1001C000809171018F5F80937101CFBFCF910895AE
:1001D000CF93DF931F92CDB7DEB76983DC01ED913A
:1001E000FC910280F381E02D41E050E0BE016F5FA1
:1001F0007F4F09950F90DF91CF910895CF93DF93B3
:10020000EC01898D9A8D009759F0FC0113821282BE
:100210000E94B20CE98DFA8D22813381232B31F0BB
:1002200081E090E09B838A8380E090E0DF91CF9132
:100230000895FC01818D928D009711F00C94520A63
:100240000895CF93DF931F92CDB7DEB741E050E022
:10025000BE016F5F7F4F0E946308019719F4898187
:1002600090E002C08FEF9FEF0F90DF91CF91089544
:10027000FC01818D928D009711F00C9421018FEF7C
:100280009FEF08950F931F93CF93DF938C01FC0191
:10029000818D928D0097B9F00E942101EC018F3F72
:1002A000FFEF9F0799F0F801818D928DFC01428547
:1002B00053856485758541505109610971090E9412
:1002C000B609CE0105C080E090E002C08FEF9FEF3D
:1002D000DF91CF911F910F910895CF92DF92EF920E
:1002E000FF920F931F93CF93DF93EC017B016A0181
:1002F0001B821A8208EE13E020E030E00C831D839D
:100300002E833F838FE291E0998388838DE190E093
:100310000E94FC1A9A8F898F009779F02DE1F701DE
:10032000DC0101900D922A95E1F74CE050E0B60116
:10033000CE010C960E943B1C188EDF91CF911F912D
:100340000F91FF90EF90DF90CF900895FC01138202
:10035000128248EE53E060E070E044835583668388
:1003600077838FE291E091838083128E118E1486C1
:100370000895FC01818D928D009711F00C94630813
:1003800080E090E00895FC01818D928D009729F026
:100390000E94B60991E0811101C090E0892F089573
:1003A000DC015996ED91FC915A97309729F06285BE
:1003B00073858485958508956FEF7FEFCB01089550
:1003C000DC015996ED91FC915A97309729F0638999
:1003D000748985899689089560E070E0CB0108955D
:1003E000CF92DF92EF92FF92CF93DF93EC01898D52
:1003F0009A8D892BD9F0CE010E94E0016B017C011E
:10040000CE010E94D001A7019601261B370B480B95
:10041000590BDA01C901811530E89307A105B1052F
:1004200038F08FEF9FE7A0E0B0E002C080E090E0FE
:10043000DF91CF91FF90EF90DF90CF900895CF9311
:10044000DF93EC01898D9A8D009741F00E94990A03
:10045000898D9A8D0E94941B1A8E198EDF91CF91EF
:100460000895DC015996ED91FC915A97309721F04F
:1004700081E09581911101C080E008950F931F9351
:10048000CF93DF93EC01462F61E00E942705811195
:1004900002C080E01DC08E01045F1F4F41E0BE011D
:1004A000C8010E94F911882359F0B801CE018A963B
:1004B0000E94130891E0811101C090E0892F08C0CB
:1004C00040E0BE01C8010E94F911882311F3EDCF6D
:1004D000DF91CF911F910F910895FC01DB011296DE
:1004E0008D919C9113979383828381E491E0918312
:1004F000808314968C911497848315968C9115970C
:10050000858316964D915D916D917C9119974683E7
:100510005783608771871A964D915D916D917C919B
:100520001D9742875387648775871E964D915D910D
:100530006D917C91519746875787608B718B52964E
:100540008C915297828B53964D915D916D917C91D8
:100550005697438B548B658B768B57964D915D9157
:100560006D917C915A97478B508F618F728F5B96FC
:100570008D919C915C97948F838F08954F925F9299
:100580006F927F928F929F92AF92BF92CF92DF92A3
:10059000EF92FF920F931F93CF93DF93CDB7DEB708
:1005A000C754D1090FB6F894DEBF0FBECDBF6C01A2
:1005B0004A013901665D7F4F5E018EE1A80EB11CD4
:1005C000C5010E946D021C821B8281E491E09A8326
:1005D00089831E828401FE0131967F015A2C4B2CA7
:1005E0006FE270E0C8010E94301C0097E9F1F80149
:1005F00020812F3219F40F5F1F4FF2CF801B8D30F7
:1006000008F08CE0A82EB12CA501B801CE01CB9644
:100610000E943B1CEBE3F0E0EC0FFD1FEA0DFB1D1D
:100620001082C7010E94990A21E0AE01455C5F4F2C
:10063000652D742DC7010E94CD0B811109C0F601F3
:100640001382128281E491E091838083158216C027
:100650000A0D1B1D852D942D0E94990AC2015E2C46
:100660004F2CE92EF82EBCCF08191909F30111837C
:100670000083652D742DC6010E946D02C601C95B01
:10068000DF4F0FB6F894DEBF0FBECDBFDF91CF9125
:100690001F910F91FF90EF90DF90CF90BF90AF90A0
:1006A0009F908F907F906F905F904F9008959F9252
:1006B000AF92BF92CF92DF92EF92FF920F931F9370
:1006C000CF93DF93CDB7DEB7C955D1090FB6F894F4
:1006D000DEBF0FBECDBF7C016B015A01922E9E0181
:1006E000285A3F4FCE01CB960E94BE026A960EADAD
:1006F0001FAD6A970A0D1B1DF801808181110AC088
:10070000BE01655C7F4FCE0101960E946D024BE3F6
:1007100051E041C019A218A281E491E09F8F8E8F11
:100720001BA221968FAD2197811104C0C7010E94A1
:10073000A60137C08250823060F4B601665D7F4FFB
:10074000292DA801CE014E960E94CD0B811110C01B
:10075000EDCF292DA801BE01655C7F4FCE014E96DD
:100760000E94CD0B882311F3CE01CB960E94990AEB
:10077000892D867041F049A95AA96BA97CA9CE019F
:100780004E960E94B609BE01625E7F4FCE01019671
:100790000E946D02A801BE016F5F7F4FC7010E94DA
:1007A0006D01C701C75ADF4F0FB6F894DEBF0FBE09
:1007B000CDBFDF91CF911F910F91FF90EF90DF9010
:1007C000CF90BF90AF909F900895109277011092B4
:1007D000780110927B0110927D0182E090E0A0E010
:1007E000B0E080937E0190937F01A0938001B0934D
:1007F00081011092950110929F0110929E0181E457
:1008000091E090939D0180939C011092A101089525
:100810009FB7F8942091700180916E01213019F4F6
:100820008DBB9FBF08958FBF089520917001222333
:1008300099F03FB7F89420917001213059F42DB30D
:1008400020936E014DB320916F01209524232DBB81
:100850003FBF02C030936E018CBD9DBD08958EBD1B
:1008600000000DB407FEFDCF8EB508958FEF0C94F8
:100870002F0461E0FC0184810E941D188091BB015E
:10088000882339F01092BB018091700181110C9482
:1008900008040895CF93DF93EC018091BB0181118F
:1008A00009C081E08093BB018091BC019091BD01A2
:1008B0000E94150460E08C81DF91CF910C941D188B
:1008C000CF93DF93EC018E81882389F08F81988507
:1008D0009C012F5F3F4F38872F838230924018F45E
:1008E0000E943604F3CFCE010E9439041E82DF91AC
:1008F000CF910895673028F026E1FC01258380E040
:1009000008956230A1F050F4662379F06130D9F493
:1009100080E58093BC016093BD011AC0643059F03A
:1009200040F0653081F482E508C080E506C080E5CE
:100930000BC081E502C081E507C08093BC0181E066
:100940008093BD01089582E58093BC011092BD01A2
:1009500081E008950F931F93CF93DF93EB010E94E3
:1009600074178B010E9436048F3F49F00E94741760
:10097000601B710B6C177D07A8F380E001C081E05C
:10098000DF91CF911F910F910895CF92DF92FF9247
:100990000F931F93CF93DF9300D000D0CDB7DEB776
:1009A0006C01F62E29833A834B835C830E9460049A
:1009B000C6010E944A046CE271E0C6010E94AA04CA
:1009C0008F2D80640E942F0408E110E05C814B8130
:1009D0003A812981DA01C901002E04C0B695A79594
:1009E000979587950A94D2F729833A834B835C8342
:1009F0000E942F040850110929813A814B815C81A2
:100A0000083F8FEF180731F7FF2029F0E8E0FE16C6
:100A100021F08FEF03C085E901C087E80E942F0411
:100A200010E00E943604F601828787FF04C01F3F52
:100A300011F01F5FF6CF0F900F900F900F90DF9186
:100A4000CF911F910F91FF90DF90CF900895BF92AB
:100A5000CF92DF92EF92FF920F931F93CF93DF938A
:100A6000EC01B62E1B8619861E821D824C830E94C5
:100A700074178B0161E08C810E94E41761E08C8126
:100A80000E941D180E94B20082E58093BC0181E0A3
:100A90008093BD018091BC019091BD010E9415041D
:100AA0002AE0F22E8FEF0E942F04FA94D9F780915A
:100AB000700181110E940804CE010E944A0420E0C6
:100AC00030E0A90160E0CE010E94C504F82E8A87BB
:100AD00081E0F81649F00E947417601B710B613DAC
:100AE000774068F381E04BC02AEA31E040E050E013
:100AF00068E0CE010E94C50482FF02C0FB860DC0E3
:100B000094E0F92E0E9436048A87FA94D9F78A3A3B
:100B100011F082E034C082E08B878B85823031F423
:100B2000C12CD12CE12C80E4F82E03C0C12CD12C97
:100B3000760120E030E0A90167E3CE010E94C50400
:100B4000A701960169E2CE010E94C5048A87882325
:100B500049F00E947417601B710B613D774048F3A8
:100B600088E00DC08B85823031F520E030E0A901AE
:100B70006AE3CE010E94C504882381F086E08D835C
:100B8000CE010E94390480E0DF91CF911F910F9137
:100B9000FF90EF90DF90CF90BF9008950E943604B1
:100BA000807C803C11F483E08B870E9436040E9495
:100BB00036040E943604CE010E9439046B2DCE010A
:100BC000DF91CF911F910F91FF90EF90DF90CF9029
:100BD000BF900C947A040F931F93CF93DF93EC0193
:100BE0000E9474178B010E9436048A878F3F49F454
:100BF0000E947417601B710B6D327140A0F38FE07F
:100C000003C08E3F39F08DE08D83CE010E94390400
:100C100080E001C081E0DF91CF911F910F91089595
:100C2000CF92DF92EF92FF920F931F93CF93DF93B8
:100C3000EC0169010115110509F462C0C801820FB8
:100C4000931F8130924008F05DC08E81882371F03F
:100C500088819981AA81BB81481759076A077B0758
:100C600029F48F819885C816D90610F548835983D1
:100C70006A837B838B85833039F039E0440F551FBD
:100C8000661F771F3A95D1F79A01AB0161E1CE015A
:100C90000E94C504882319F083E08D8333C0CE0100
:100CA0000E94EB05882371F118861F8281E08E83F4
:100CB0008F8198858C159D0540F40E9436048F81A4
:100CC0009885019698878F83F3CF6701E00EF11E18
:100CD000CE14DF0431F00E943604F60181936F01D7
:100CE000F7CF8F819885800F911F98878F832985F3
:100CF000222319F08115924018F0CE010E94600461
:100D000081E004C0CE010E94390480E0DF91CF91E0
:100D10001F910F91FF90EF90DF90CF900895EF9289
:100D2000FF920F931F93790100E012E020E030E082
:100D30000E9410061F910F91FF90EF900895CF929F
:100D4000DF92EF92FF920F931F93CF93DF9300D028
:100D5000CDB7DEB78C01862F49835A830E942F04BA
:100D60004981C42E5A81D52EE12CF12CF6018191B6
:100D70006F010E942F04FFEFEF1AFF0AE11482E0D7
:100D8000F806A1F78FEF0E942F048FEF0E942F0427
:100D90000E943604F80182878F71853039F081E135
:100DA0008583C8010E94390480E001C081E00F9072
:100DB0000F90DF91CF911F910F91FF90EF90DF90F7
:100DC000CF9008950F931F93CF93DF93EC01890188
:100DD000411551056105710511F482E132C08B8521
:100DE000833039F089E0440F551F661F771F8A95BD
:100DF000D1F79A01AB0168E1CE010E94C5048823B6
:100E000011F084E01EC0A8016EEFCE010E949F0683
:100E10008823C1F068E572E0CE010E94AA04811126
:100E200002C085E10EC020E030E0A9016DE0CE01F6
:100E30000E94C504811104C00E943604882339F041
:100E400084E18D83CE010E94390480E004C0CE018C
:100E50000E94390481E0DF91CF911F910F91089595
:100E600080E58093BC0181E08093BD010895CF931C
:100E7000DF93EC019C012A5F3F4F41E050E060E0CE
:100E800070E08B8D9C8D0E948E108823A1F04F897D
:100E9000588D698D7A8D452B462B472B71F44E81E9
:100EA0005F81688579854F8B588F698F7A8F8C81A8
:100EB00080688C8302C080E001C081E0DF91CF9127
:100EC0000895CF92DF92EF92FF921F93CF93DF931B
:100ED000EC010E943707811102C080E04BC0EB8D0E
:100EE000FC8DCE80DF80E884F98482E0C81AD108C6
:100EF000E108F108058404C0CC0CDD1CEE1CFF1CCD
:100F00000A94D2F74685578560897189C40ED51E2B
:100F1000E61EF71E148181E0C81AD108E108F10825
:100F2000112361F0C701B601610F711D811D911D73
:100F30000E94D80E882389F21150F2CFEB8DFC8DE0
:100F4000C12C82E0D82EE12CF12C058404C0CC0CFD
:100F5000DD1CEE1CFF1C0A94D2F74B895C896D895D
:100F60007E894C0D5D1D6E1D7F1D4B8B5C8B6D8BCB
:100F70007E8B81E0DF91CF911F91FF90EF90DF900A
:100F8000CF900895CF93DF93EC01462F6E857F8538
:100F9000888999890E949D0E882341F08A8920E2E0
:100FA000829FC001112489539E4F02C080E090E0CF
:100FB000DF91CF910895282FFB018BE030E2319330
:100FC0008150E9F7A22FB92F20E037E09D919923B6
:100FD00019F19E3219F0E8E6F0E008C03A3011F15C
:100FE00028E03AE0F3CF31964917E1F044914111FE
:100FF000FACF3217B8F04FED490F4E3598F441E073
:10100000420FFB01E20FF11D2FE9290F2A3108F4ED
:1010100090529083242FDACF81E0FB0190819032AF
:1010200009F480E008950F931F93CF93DF93EC01B1
:101030008B018D81882311F080E040C0FB018789FE
:101040008031B1F482E08D831F8A188E198E1A8E3A
:10105000408D518D60E070E095E0440F551F661F94
:10106000771F9A95D1F74B8B5C8B6D8B7E8B15C060
:10107000803211F783E08D83FB01428D538D648DA7
:10108000758D4F8B588F698F7A8F9E012D5E3F4FE4
:10109000C8010E94820F882379F21C8F0B8F81E098
:1010A0008C831E821F82188619861A861B861C86D0
:1010B0001D861E861F86188A198A1A8ADF91CF918B
:1010C0001F910F9108952F923F924F925F926F92CE
:1010D0007F928F929F92AF92BF92CF92DF92EF92C8
:1010E000FF920F931F93CF93DF93EC016B015A0193
:1010F0008D81811103C08FEF9FEFDAC08C8180FF5B
:10110000FACF4B895C896D897E898A859B85AC8500
:10111000BD852501612C712C8A019B01081B190BCF
:101120002A0B3B0B041515052605370518F45A0143
:10113000A81AB90A25011E0126E0220E311C41140D
:10114000510409F47BC04A855B856C857D854A0125
:1011500081E09822ED818A019B01F9E0369527957F
:1011600017950795FA95D1F78B8D9C8DE23051F448
:10117000FC01628D738D848D958D600F711F821FB0
:10118000931F3EC0FC0174807A94702281149104F4
:10119000C9F4711017C0452B462B472B49F48F8992
:1011A000988DA98DBA8D8E839F83A887B9870AC031
:1011B0004E815F816885798591010E94FE0E8823AA
:1011C00009F499CFEB8DFC8D6E817F81888599859F
:1011D0006250710981099109058404C0660F771F67
:1011E000881F991F0A94D2F70685178520893189AF
:1011F000600F711F821F931F670D711D811D911D4F
:1012000020E032E02819390932012415350508F4A7
:1012100039012C8126FD04C06114F2E07F06A1F59E
:1012200000910601109107012091080130910901F8
:10123000601771078207930719F426C0C50138C0EB
:10124000760183019401AB01BC018091C5019091AD
:10125000C6010E941006882309F44DCFC60CD71C86
:1012600004C0E81BF90BCE0EDF1E8A859B85AC857A
:10127000BD85860D971DA11DB11D8A879B87AC87F3
:10128000BD87461857085BCF40E00E949D0E88231B
:1012900009F431CFC40189539E4FD6019C01260D1C
:1012A000371DFC01E217F307E1F241914D93FACFAC
:1012B000DF91CF911F910F91FF90EF90DF90CF9032
:1012C000BF90AF909F908F907F906F905F904F9066
:1012D0003F902F900895FF920F931F93CF93DF932A
:1012E0001F92CDB7DEB78C01FC018581823018F4E6
:1012F00080E090E034C0F8014285538564857585AF
:10130000A5E07695679557954795AA95D1F7F42F5F
:10131000FF70FF2E41E050E0BE016F5F7F4FC801BC
:101320000E946308019719F4298130E002C02FEF71
:101330003FEF2F3F3F4FE1F2F8014285538564852F
:101340007585415E5F4F6F4F7F4F4287538764873C
:101350007587F0E2FF9EC001112489539E4F0F90C4
:10136000DF91CF911F910F91FF9008954F925F925F
:101370006F927F92AF92BF92CF92DF92EF92FF92E5
:101380000F931F93CF93DF93EC016A017B012D81B3
:10139000222309F457C08B899C89AD89BE898417A3
:1013A0009507A607B70708F44DC04EC08A859B85F0
:1013B000AC85BD85EB8DFC8DE585F0E03996AC0103
:1013C000BD0141505109610971090E2E04C0769585
:1013D0006795579547950A94D2F797018601015072
:1013E00011092109310904C03695279517950795EC
:1013F000EA95D2F70417150726073707B0F58F8946
:10140000988DA98DBA8D8E839F83A887B98728016F
:1014100039015E0186E0A80EB11C4114510461043B
:10142000710461F14E815F816885798595018B8DAD
:101430009C8D0E94FE0E91E0491A510861087108C6
:101440008111EBCF80E01FC02230C1F0C114D10464
:10145000E104F10409F0AACF1E821F8218861986C2
:101460001A861B861C861D860DC0892B8A2B8B2B0A
:1014700031F2041B150B260B370BC9CFCA86DB864E
:10148000EC86FD8681E0DF91CF911F910F91FF9057
:10149000EF90DF90CF90BF90AF907F906F905F9074
:1014A0004F9008950F931F93CF93DF93EC018D819D
:1014B0008823C9F18C8187FF30C061E0CE010E9492
:1014C000C2078C01009779F18D81823048F44B89F5
:1014D0005C896D897E89F801448F558F668F778F7F
:1014E0004F89588D698D7A8DF801538F428F758B96
:1014F000648BE091BE01F091BF01309759F0B801C3
:101500006A5E7F4FC80148960995F801808D918DDC
:10151000938B828B8C818F778C83DF91CF911F91FE
:101520000F910C94620E80E0DF91CF911F910F918B
:101530000895CF93DF93EC010E94520A882319F09B
:101540001D8281E001C080E0DF91CF9108954F922C
:101550005F926F927F92AF92BF92CF92DF92EF92A3
:10156000FF920F931F93CF93DF9300D000D0CDB79E
:10157000DEB75C016A017B01FC0185818130F1F4F9
:10158000848181FF1BC0F50183899489A589B6896F
:1015900084179507A607B70788F0892B8A2B8B2B12
:1015A00009F479C0F5014284538464847584B701D9
:1015B000A601C5010E94B609811102C080E06CC07D
:1015C000F501838D948DC114D104E104F10471F40B
:1015D0004789508D618D728D0E94A311882371F30C
:1015E000F501178A108E118E128E3AC0F5014681D0
:1015F0005781608571859E012F5F3F4F0E94FE0ECF
:101600008823E1F249815A816B817C81F501838DC8
:10161000948DFC012789203129F408EF1FEF20E089
:1016200030E004C008EF1FEF2FEF3FE040175107F5
:1016300062077307A8F40E94A311882309F4BECFA0
:10164000F50146815781608571850FEF1FEF2FEF00
:101650003FE0838D948D0E94ED0F882309F4AECF77
:10166000F501C38AD48AE58AF68A848180688483F6
:10167000C5010E94520A882309F4A0CFB701A60130
:101680004C145D046E047F0410F4B301A201C50183
:101690000E94B60901C081E00F900F900F900F904B
:1016A000DF91CF911F910F91FF90EF90DF90CF903E
:1016B000BF90AF907F906F905F904F900895FF9292
:1016C0000F931F93CF93DF93EC01F42E80E2689F7A
:1016D000F0011124E953FE4F8385817129F0842F95
:1016E000827411F080E053C06A8B80910601909162
:1016F0000701A0910801B09109018E879F87A88BEF
:10170000B98B4489558960E070E0BA0155274427B8
:10171000028D138D20E030E0402B512B622B732B78
:101720004F8B588F698F7A8F8385887151F4048D20
:10173000158D268D378D0B8B1C8B2D8B3E8B81E071
:101740000CC0803179F69E012D5E3F4F8B8D9C8DB4
:101750000E94820F882331F284E08D838F2D8F7059
:101760008C831E821F82188619861A861B861C8609
:101770001D86F6FE0BC040E050E0BA01CE01DF91BD
:10178000CF911F910F91FF900C94A70A81E0DF91F8
:10179000CF911F910F91FF900895AF92BF92CF927A
:1017A000DF92EF92FF920F931F93CF93DF93CDB70A
:1017B000DEB72B970FB6F894DEBF0FBECDBF7C010E
:1017C0006B01CA01B22EF70125812111B9C0BE01FA
:1017D0006F5F7F4F0E94DB07882309F4B1C0F601D9
:1017E000838D948DF701948F838FF6011682178273
:1017F000108611861286138614861586A12CF60192
:10180000028513852485358583899489A589B689C0
:10181000081719072A073B07E8F545E0369527958D
:10182000179507954A95D1F70F70C6010E946B096D
:10183000009709F485C0FC012081222311F0253E88
:10184000B9F4A1100EC0F701028B4091060150912E
:101850000701609108017091090146875787608BE5
:10186000718BFC018081AA24A3948111C8CF12C07E
:101870004BE050E0BC01CE0101960E94231C892B55
:1018800009F0BDCF8B2D8073803309F459C04B2DE7
:10189000602F52C08B2D8271823109F051C0AA2075
:1018A00041F061E0C7010E94C2078C01009779F402
:1018B00047C0F6018581823009F442C0C6010E940A
:1018C00061078823E9F1F701128A07EC11E080E251
:1018D000F80111928A95E9F78BE0FE013196D80163
:1018E00001900D928A95E1F7E091BE01F091BF0160
:1018F000309739F0B801625F7F4FC8014096099573
:1019000009C081E298E2F801918B808B80E098E039
:1019100097878687F80180899189938B828B918F35
:10192000808F86859785978B868B0E94620E882391
:1019300039F04B2DF7016289C7010E945F0B01C08E
:1019400080E02B960FB6F894DEBF0FBECDBFDF91BF
:10195000CF911F910F91FF90EF90DF90CF90BF90AC
:10196000AF9008952F923F924F925F926F927F9225
:101970008F929F92AF92BF92CF92DF92EF92FF929F
:101980000F931F93CF93DF9300D000D01F92CDB75A
:10199000DEB78C017B013A01DC0115968C9115971D
:1019A0008130C9F414968C9181FF15C082FF1BC051
:1019B000F801438954896589768982859385A48550
:1019C000B58584179507A607B70769F0C8010E9477
:1019D000B609811108C081E090E0F8019383828309
:1019E00080E090E046C1630180C0D8015B968D9194
:1019F0009C915C97FC01F481F150B501A40129E0B0
:101A000076956795579547952A95D1F7F423FD83E9
:101A100021E09222FF2309F474C080E092E088194B
:101A2000990956018C159D0508F45C01D8015B9657
:101A3000ED91FC915C9716962D903D904D905C90A9
:101A40001997B2E02B1A310841085108058404C0E7
:101A5000220C331C441C551C0A94D2F786859785AA
:101A6000A089B189280E391E4A1E5B1EED812E0EFB
:101A7000311C411C511CA114F2E0BF0609F088C0C2
:101A80008091060190910701A0910801B091090190
:101A900082159305A405B50559F48FEF9FEFDC017E
:101AA0008093060190930701A0930801B093090168
:101AB0009701B201A1018091C5019091C6010E94D8
:101AC000E206882309F487CF9EEFF91ACA18DB08CB
:101AD000F80182859385A485B5858A0D9B1DA11D7E
:101AE000B11D82879387A487B587D8011A968D90F8
:101AF0009D90AD90BC901D97C114D10409F075CF95
:101B00008AC08114910409F088CF16964D915D9199
:101B10006D917C911997411551056105710559F435
:101B200057968D919D910D90BC91A02D0097A10588
:101B3000B10541F521C09E012F5F3F4F0E94FE0E6F
:101B4000882309F44ECF89819A81AB81BC81F80149
:101B5000238D348DF9012789203129F448EF5FEF77
:101B600060E070E004C048EF5FEF6FEF7FE0841744
:101B70009507A607B70730F0C8010E943707811103
:101B80004CCF29CFF80186839783A087B18745CFB3
:101B90008114910429F5D8011A964D915D916D91AA
:101BA0007C911D9753968D919D910D90BC91A02D88
:101BB000481759076A077B0798F00E94620E88232E
:101BC00009F409CF209206013092070140920801E2
:101BD000509209018091C40181608093C40108C0C2
:101BE00041E0C201B1010E949D0E882309F4F3CEA9
:101BF000C40189539E4FD7019C012A0D3B1DFC0156
:101C0000E217F30719F04D914193FACFE81BF90B56
:101C1000EE0EFF1E5BCF53968D919D910D90BC9162
:101C2000A02DF801248188159905AA05BB0538F473
:101C3000838A948AA58AB68A206824830CC08091FE
:101C4000BE019091BF01892B31F06114710419F02C
:101C50002068F8012483D80114968C9183FD02C07A
:101C6000C30107C0C8010E94520A882309F4B3CEF9
:101C7000F7CF0F900F900F900F900F90DF91CF91B3
:101C80001F910F91FF90EF90DF90CF90BF90AF909A
:101C90009F908F907F906F905F904F903F902F908C
:101CA0000895CF93DF931F92CDB7DEB7698341E0EC
:101CB00050E0BE016F5F7F4F0E94B20C0F90DF912A
:101CC000CF9108958091C401882399F14091060134
:101CD00050910701609108017091090127EC31E0F2
:101CE0008091C5019091C6010E94E206882319F1F6
:101CF0004091C0015091C1016091C2017091C30136
:101D0000411551056105710591F027EC31E0809195
:101D1000C5019091C6010E94E206882361F01092ED
:101D2000C0011092C1011092C2011092C301109221
:101D3000C40181E0089580E00895CF92DF92EF9290
:101D4000FF92CF936B017C01C42F8091060190918B
:101D50000701A0910801B09109018C159D05AE0500
:101D6000BF05D1F00E94620E811102C080E01AC04E
:101D700027EC31E0B701A6018091C5019091C60121
:101D80000E948F06882391F3C0920601D09207012A
:101D9000E0920801F09209018091C4018C2B80939C
:101DA000C40181E0CF91FF90EF90DF90CF90089534
:101DB000CF92DF92EF92FF926B017C010E94620E44
:101DC0008823B1F0E7ECF1E0119283E0E73CF807FB
:101DD000D9F7C0920601D0920701E0920801F09273
:101DE00009018091C40181608093C40181E001C038
:101DF00080E0FF90EF90DF90CF9008958F929F92B8
:101E0000AF92BF92CF92DF92EF92FF920F931F9308
:101E1000CF93DF938C016A017B01E901FC0181858D
:101E20009285A385B4850196A11DB11D84179507E0
:101E3000A607B70710F480E058C0F8014389548919
:101E4000658976898789803129F4BB27AF2D9E2D3E
:101E50008D2D09C0D701C60127E0B695A7959795A6
:101E600087952A95D1F74C015D01840E951EA61E1B
:101E7000B71EC501B4018090060190900701A090A3
:101E80000801B0900901681579058A059B0589F458
:101E9000F8018789803199F4DD24EE24FF24F601CE
:101EA000EE0FFF1FE953FE4F80819181A0E0B0E06B
:101EB00017C040E00E949D0E8111EACFBCCFE8948C
:101EC000C7F8DD24EE24FF24F601EE0FFF1FEE0F0E
:101ED000FF1FE953FE4F80819181A281B381BF70C2
:101EE00088839983AA83BB8381E0DF91CF911F917F
:101EF0000F91FF90EF90DF90CF90BF90AF909F90A9
:101F00008F9008954F925F926F927F92AF92BF929F
:101F1000CF92DF92EF92FF920F931F93CF93DF93B5
:101F200000D000D0CDB7DEB78C0149835A836B83D4
:101F30007C835901C12CD12C7601412C42E0542ED6
:101F4000612C712C49815A816B817C819E012F5FAC
:101F50003F4FC8010E94FE0E882359F1D301C201F0
:101F6000F801058404C0880F991FAA1FBB1F0A949B
:101F7000D2F7C80ED91EEA1EFB1E49815A816B8119
:101F80007C818789803129F488EF9FEFA0E0B0E061
:101F900004C088EF9FEFAFEFBFE0481759076A070B
:101FA0007B0780F2F501C082D182E282F38281E078
:101FB00001C080E00F900F900F900F90DF91CF91B4
:101FC0001F910F91FF90EF90DF90CF90BF90AF9057
:101FD0007F906F905F904F9008954F925F926F92B5
:101FE0007F928F929F92AF92BF92CF92DF92EF92A9
:101FF000FF920F931F93CF93DF93EC016A017B0154
:1020000028013901423051056105710508F474C099
:1020100049855A856B857C854F5F5F4F6F4F7F4F3A
:102020004C155D056E057F0508F466C08B889C889D
:10203000AD88BE888F89803129F477276F2D5E2D7A
:102040004D2D09C0B701A601E7E076956795579534
:102050004795EA95D1F7840E951EA61EB71E4091AE
:1020600006015091070160910801709109018416E1
:102070009506A606B70671F48F89803199F4DD24A0
:10208000EE24FF24F601EE0FFF1FE953FE4F5182AD
:10209000408218C040E0C501B4010E949D0E81112C
:1020A000EBCF2AC0E894C7F8DD24EE24FF24F60124
:1020B000EE0FFF1FEE0FFF1FE953FE4F40825182CC
:1020C000628273828091C40181608093C4018A8995
:1020D000823080F08D819E81AF81B885880D991DF9
:1020E000AA1DBB1D8093C0019093C101A093C201A2
:1020F000B093C30181E001C080E0DF91CF911F91D7
:102100000F91FF90EF90DF90CF90BF90AF909F9096
:102110008F907F906F905F904F9008952F923F9295
:102120004F925F926F927F929F92AF92BF92CF92A7
:10213000DF92EF92FF920F931F93CF93DF93CDB770
:10214000DEB760970FB6F894DEBF0FBECDBF5C015F
:102150004D875E876F87788B1901D9014D905D900F
:102160006D907C90411451046104710431F0BFEF13
:102170004B1A5B0A6B0A7B0A10C0FC01408051803D
:1021800062807380992493940D851E852F853889EC
:10219000013011052105310509F0912CD501199661
:1021A0002D913D914D915C911C972F5F3F4F4F4F6B
:1021B0005F4F29873A874B875C87730162011D82D5
:1021C0001E821F821886F50181859285A385B485BC
:1021D0000D811E812F813885081719072A073B07B3
:1021E00008F056C029853A854B855C852C153D0540
:1021F0004E055F0550F4A2E0CA2ED12CE12CF12C43
:10220000B2E04B2E512C612C712C9E012F5F3F4F61
:10221000B701A601C5010E94FE0E8823C9F14981BC
:102220005A816B817C81D701C6010196A11DB11D28
:10223000452B462B472B19F02C013D010FC0AC015B
:10224000BD0144195509660977090D851E852F853D
:102250003889401751076207730779F02D813E8155
:102260004F8158852F5F3F4F4F4F5F4F2D833E83E8
:102270004F8358876C017D01A6CF0FEF1FEF2FEF23
:102280003FE0B701A601C5010E94ED0F811118C002
:1022900080E041C0D701C6010197A109B1098D8332
:1022A0009E83AF83B88797018601AC01BD01C5014C
:1022B0000E94ED0F882361F3CD80DE80EF80F884EB
:1022C0004C145D046E047F0428F3D1014D915D919F
:1022D0006D917C91411551056105710599F4F101EC
:1022E00040825182628273829920A1F0FFEF4F1ADF
:1022F0005F0A6F0A7F0AD5014D925D926D927C92C2
:10230000139708C093018201C5010E94ED0F81114E
:10231000E6CFBECF81E060960FB6F894DEBF0FBE69
:10232000CDBFDF91CF911F910F91FF90EF90DF9084
:10233000CF90BF90AF909F907F906F905F904F90A5
:102340003F902F900895AF92BF92CF92DF92EF927D
:10235000FF920F931F93CF93DF9300D000D0CDB7A0
:10236000DEB75C016A017B0182E090E0A0E0B0E0B2
:10237000F50180839183A283B3839E012F5F3F4F3A
:10238000B701A601C5010E94FE0E882311F100E0ED
:1023900010E09801B701A601C5010E94ED0F882346
:1023A000C1F0C980DA80EB80FC80F501878980313B
:1023B00029F488EF9FEFA0E0B0E004C088EF9FEF22
:1023C000AFEFBFE0C816D906EA06FB06B0F281E01F
:1023D00001C080E00F900F900F900F90DF91CF9190
:1023E0001F910F91FF90EF90DF90CF90BF90AF9033
:1023F00008958F929F92AF92BF92CF92DF92EF9209
:10240000FF920F931F93CF93DF93EC01142F7093E0
:10241000C6016093C501442341F1453010F080E0CE
:10242000EFC040E060E070E0CB010E949D0E882389
:10243000B1F320E1129FF0011124EB58FC4F808191
:102440008F7769F784859585A685B785843691054C
:10245000A105B10520F3C084D184E284F384C114C2
:10246000D104E104F10421F4DACFC12CD12C76019E
:1024700040E0C701B6010E949D0E882381F2809141
:10248000D2019091D3018115924049F63091D70144
:10249000332329F28091D5019091D601892B09F43B
:1024A000BECF2091D401222309F4B9CF3A8B2C83DB
:1024B0001D8630E041E050E06D85062FCA01062EF2
:1024C00002C0880F991F0A94E2F72817390731F0E4
:1024D00081E0860F8D87683078F3A1CF2091DD01F0
:1024E0003091DE012115310519F040E050E008C0BF
:1024F0002091EB013091EC014091ED015091EE0102
:102500002D833E834F8358878091D5019091D601CA
:1025100046015701880E991EA11CB11C8B8A9C8A0A
:10252000AD8ABE8AE091D801F091D901F98FE88F88
:10253000A091D701B0E00E94DC1A680D791D8A1DB8
:102540009B1D6A8F7B8F8C8F9D8F15E0EE0FFF1F79
:102550001A95E1F7E150FE4FEF2FFF27E695DC01DA
:10256000CB018E0F9F1FA11DB11D8E879F87A88B4A
:10257000B98B8090DA019090DB018114910419F0FD
:10258000A12CB12C08C08090E7019090E801A090A8
:10259000E901B090EA01A7019601281B390B4A0B0B
:1025A0005B0BDA01C901880D991DAA1DBB1D04C072
:1025B000B695A795979587950A95D2F789879A87B3
:1025C000AB87BC87853F3FE09307A105B10510F4B9
:1025D0008CE014C0853F9F4FA105B10510F480E148
:1025E0000DC08091F3019091F401A091F501B0919B
:1025F000F6018A8F9B8FAC8FBD8F80E28F8B81E03D
:10260000DF91CF911F910F91FF90EF90DF90CF90CE
:10261000BF90AF909F908F9008952091E30330E09A
:10262000220F331FF901EF5EFE4F0190F081E02D84
:10263000DC0115968D919C91169791838083F90109
:10264000E95EFE4F0190F081E02D82EB8083E09106
:10265000E303F0E0EE0FFF1FEB5EFE4F0190F08111
:10266000E02D89E180830895CF93DF93EB012A81E8
:102670003B81FC01338322834C815D816E817F81AC
:102680004483558366837783488559856A857B852E
:1026900040875187628773872DE0FE013C96DC01FD
:1026A0001C9601900D922A95E1F7298D3A8DFC0137
:1026B000328F218FDF91CF91089587EC93E00C94B6
:1026C000C30187EC93E00E943102882311F081E07E
:1026D00008950895CF92DF92EF92FF920F931F9388
:1026E000CF93DF93CDB7DEB76B970FB6F894DEBF0D
:1026F0000FBECDBF8C01AB0121E062E771E0CE01DE
:1027000001960E945703BE016F5F7F4F87EC93E0F5
:102710000E943413C8010E946113882309F451C038
:1027200048E050E060E070E0C8010E945D1387E57A
:10273000898381E48A8386E58B8385E48C83CE015B
:1027400001967C016E0195E0C90ED11C87EC93E0E7
:102750000E943801F70121917F01332727FD309531
:102760008217930719F4EC15FD0581F748E150E055
:1027700060E070E0C8010E945D1387EC93E00E9466
:102780003801F8019483838387EC93E00E94380139
:1027900020E030E0382FF80183819481822B932B45
:1027A000948383834CE250E060E070E0C8010E94B3
:1027B0005D1380E490E090936A048093690481E063
:1027C00001C080E06B960FB6F894DEBF0FBECDBFA0
:1027D000DF91CF911F910F91FF90EF90DF90CF90FD
:1027E000089510926704E091E303F0E0EE0FFF1FFD
:1027F000E75EFE4F0190F081E02D20812E7D208349
:102800000E946113882321F087EC93E00C941F024F
:1028100008951F920F920FB60F9211242F933F939A
:102820004F935F936F937F938F939F93AF93BF93D8
:10283000EF93FF93E091680491E0E927F0E0E55F12
:10284000FE4F8081882309F466C08091680489273F
:1028500080936604E091E303F0E0EE0FFF1FE75E74
:10286000FE4F0190F081E02D80818F7D80837894F0
:1028700087EC93E00E94F0012091690430916A0492
:102880002817390738F180910A0183FF09C04CE20B
:1028900050E060E070E087EC93E00E94C3012EC03E
:1028A000E091E303F0E0EE0FFF1FE75EFE4F0190C3
:1028B000F081E02D80818E7D808387EC93E00E9403
:1028C0003102882321F087EC93E00E941F021092CE
:1028D000670421C06091660480E4689FB001112400
:1028E0006A517C4F40E450E087EC93E00E94B901CC
:1028F000E0916604F0E0E55FFE4F1082E091E303B3
:10290000F0E0EE0FFF1FE75EFE4F0190F081E02D3B
:10291000808180628083FF91EF91BF91AF919F9101
:102920008F917F916F915F914F913F912F910F9078
:102930000FBE0F901F9018951F920F920FB60F9217
:1029400011242F933F938F939F93AF93BF93CF9374
:10295000DF93EF93FF9380910A0186FD2BC02091B6
:10296000E4038091E30327FF30C090E0880F991FB4
:10297000FC01ED5EFE4FA081B181FC01E35FFE4FE3
:10298000C081D181E09168048091E50390E4E99FE2
:10299000F0011124E80FF11DEA51FC4F808190E015
:1029A000332721950CF4309502C0959587952A958B
:1029B000E2F72BC08091E20391E089278093E20344
:1029C0008091E203882359F23CC090E0880F991F60
:1029D000FC01ED5EFE4FA081B181FC01E35FFE4F83
:1029E000C081D181E09168048091E50390E4E99F82
:1029F000F0011124E80FF11DEA51FC4F808190E0B5
:102A000002C0880F991F2A95E2F79983888311964F
:102A10009C938E938091E5038F5F8093E503809173
:102A2000E503803470F01092E503E0916804F0E073
:102A3000E55FFE4F91E09083809168048927809341
:102A40006804FF91EF91DF91CF91BF91AF919F917A
:102A50008F913F912F910F900FBE0F901F9018955F
:102A60006F927F928F929F92AF92BF92CF92DF929E
:102A7000EF92FF920F931F93CF93DF93EC0110928D
:102A80006704E091E303F0E0EE0FFF1FE75EFE4F07
:102A90000190F081E02D80818E7D8083CE010E94A7
:102AA0006113882321F087EC93E00E941F0240917C
:102AB000E30350E0440F551FFA01E95EFE4F6080CA
:102AC0007180D3018C9187FD1DC080910A018062C5
:102AD00080930A01FA01EB5EFE4F0190F081E02D38
:102AE0001082F3011082DF91CF911F910F91FF901F
:102AF000EF90DF90CF90BF90AF909F908F907F909E
:102B00006F900895FA01ED5EFE4F00811181D801AA
:102B10002D913C9180E090E0FA01E35FFE4F4F0180
:102B2000BA01615F7E4F5B016D817E8186179707D9
:102B300060F6D401ED90FC9037FD06C0F9016217F4
:102B4000730720F4FB0102C0E0E0F0E0D70111962A
:102B5000FC93EE9337FD08C0ED81FE81B901E217C9
:102B6000F30720F4BF0102C060E070E0F801718358
:102B70006083D501ED90FC90ED81FE81F2976AE0D3
:102B800070E0D701CD90DC90CE16DF06D0F3615017
:102B90007109B9F7019621503109C6CFCF93DF9360
:102BA000EC010E94301561E088810E94E417888161
:102BB000863031F08E3241F0853041F481E001C041
:102BC00082E08093E30304C083E0FBCF1092E30331
:102BD0008DB581608DBD8CB58C7F8CBDDF91CF9123
:102BE0000895CF92DF92EF92FF920F931F93CF93AE
:102BF000DF9300D000D0CDB7DEB78C017B01FC01A4
:102C000090818781981771F0C80129833A834B839B
:102C10005C830E94CE15F801808187835C814B81A3
:102C20003A812981C80129833A834B835C830E94BE
:102C3000F113B701C8010E946A1329813A814B81BF
:102C40005C81882309F4F0C0211531054105510547
:102C5000A1F0F801A381B4810E94DC1A6B017C0110
:102C600087EC93E00E94D001AB01BC014C0D5D1DCF
:102C70006E1D7F1DC8010E945D1381E08093670473
:102C800040910A01842F8F7780930A01F801838194
:102C900094818B3F9F4A28F080EC9DE5F801948356
:102CA0008383F8012381348146FF07C040E050E070
:102CB00060E075E38CE090E006C040E050E060E04A
:102CC0007AE688E190E00E94BD1A6AE0629FC00146
:102CD000639F900D1124F8019683858387EC93E020
:102CE0000E9438017C0187EC93E00E9442018E0D26
:102CF0009F1D97FD0196959587954091E403E0917E
:102D0000E303F0E0EE0FFF1FED5EFE4F0190F08158
:102D1000E02D20813181141634F402C036952795B8
:102D20004A95E2F709C0552741950CF4509502C029
:102D3000220F331F4A95E2F7992740E050E0281709
:102D4000390708F044C0B9016F5F7F4F62177307FE
:102D500028F09B018617970708F49C01FA01EA51B5
:102D6000FC4F20834F5F5F4F4034510561F740E0D7
:102D700050E0B9016F5F7F4F6217730728F09B0126
:102D80008617970708F49C01FA01EA5DFB4F208340
:102D90004F5F5F4F4034510561F710926804109205
:102DA0000B0110920C011092E503F894C8010E94E7
:102DB0000D13E091E303F0E0EE0FFF1FE75EFE4F1F
:102DC0000190F081E02D81E2808378942DC0B901DB
:102DD000615071096817790728F06217730718F4B2
:102DE0009B0101C09C01FA01EA51FC4F20834F5F17
:102DF0005F4F4034510559F740E050E0B901615050
:102E000071096817790728F06217730718F49B0196
:102E100001C09C01FA01EA5DFB4F20834F5F5F4FC9
:102E20004034510559F7B9CF0F900F900F900F9084
:102E3000DF91CF911F910F91FF90EF90DF90CF9096
:102E4000089520E030E0A9010C94F11587EC93E09F
:102E50000C94A6011F920F920FB60F9211242F937C
:102E60003F938F939F93AF93BF9380916C04909106
:102E70006D04A0916E04B0916F0430916B0426E054
:102E8000230F2D3720F40296A11DB11D05C029E89E
:102E9000230F0396A11DB11D20936B0480936C0436
:102EA00090936D04A0936E04B0936F0480917004AE
:102EB00090917104A0917204B09173040196A11DC8
:102EC000B11D8093700490937104A0937204B09329
:102ED0007304BF91AF919F918F913F912F910F906C
:102EE0000FBE0F901F9018952FB7F89460916C0447
:102EF00070916D0480916E0490916F042FBF0895BE
:102F0000789484B5826084BD84B5816084BD85B5C4
:102F1000826085BD85B5816085BDEEE6F0E080818B
:102F200081608083E1E8F0E01082808182608083AC
:102F3000808181608083E0E8F0E08081816080832F
:102F4000E1EBF0E0808184608083E0EBF0E0808161
:102F500081608083EAE7F0E0808184608083808103
:102F60008260808380818E7F80838081806880837F
:102F70001092C1000895833081F028F4813099F0D7
:102F80008230A1F008958730A9F08830B9F08430FC
:102F9000D1F4809180008F7D03C0809180008F7775
:102FA00080938000089584B58F7702C084B58F7DAB
:102FB00084BD08958091B0008F7703C08091B000E8
:102FC0008F7D8093B0000895CF93DF9390E0FC0154
:102FD000E457FF4F2491FC01E056FF4F8491882372
:102FE00049F190E0880F991FFC01E254FF4FA59131
:102FF000B4918C549F4FFC01C591D4919FB761113E
:1030000008C0F8948C91209582238C938881822328
:103010000AC0623051F4F8948C91322F309583239A
:103020008C938881822B888304C0F8948C91822BA6
:103030008C939FBFDF91CF9108950F931F93CF93F0
:10304000DF931F92CDB7DEB7282F30E0F901E858A3
:10305000FF4F8491F901E457FF4F1491F901E056B5
:10306000FF4F04910023C9F0882321F069830E9457
:10307000BB176981E02FF0E0EE0FFF1FEC54FF4F0C
:10308000A591B4919FB7F8948C91611103C01095EC
:10309000812301C0812B8C939FBF0F90DF91CF9133
:1030A0001F910F910895FC01818D228D90E0805C2D
:1030B0009F4F821B91098F7399270895FC01918D71
:1030C000828D981731F0828DE80FF11D858D90E08B
:1030D00008958FEF9FEF0895FC01918D828D9817D1
:1030E00061F0828DDF01A80FB11D5D968C91928DEC
:1030F0009F5F9F73928F90E008958FEF9FEF0895E9
:103100008AEE99E1892B49F080E090E0892B29F043
:103110000E94EA1981110C9400000895FC01848D2D
:10312000DF01A80FB11DA35ABF4F2C91848D90E0F1
:1031300001968F739927848FA689B7892C93A089CC
:10314000B1898C9180648C93938D848D981306C083
:103150000288F389E02D80818F7D80830895CF934D
:10316000DF93EC01888D8823C9F0EA89FB8980818F
:1031700085FD05C0A889B9898C9186FD0FC00FB661
:1031800007FCF5CF808185FFF2CFA889B9898C91A2
:1031900085FFEDCFCE010E948E18E7CFDF91CF9152
:1031A0000895CF92DF92FF920F931F93CF93DF93F7
:1031B0001F92CDB7DEB76C0181E0D60158968C9393
:1031C00058975B969C915B975C968C915C97981353
:1031D00007C05096ED91FC915197808185FD2EC0DE
:1031E000F601038D10E00F5F1F4F0F731127F02EB4
:1031F000F601848DF81211C00FB607FCF9CFD60185
:103200005096ED91FC915197808185FFF1CFC601D9
:1032100069830E948E186981EBCF838DE80FF11DC1
:10322000E35AFF4F6083D6015B960C935B975296EF
:10323000ED91FC915397808180620CC0D601569627
:10324000ED91FC91579760835096ED91FC915197C9
:1032500080818064808381E090E00F90DF91CF9146
:103260001F910F91FF90DF90CF900895BF92CF9262
:10327000DF92EF92FF92CF93DF93EC016A017B0123
:10328000B22E60E874E88EE190E0A70196010E94FA
:103290009B1A215031094109510956954795379597
:1032A0002795E889F98982E08083211580E1380734
:1032B00098F0E889F989108260E472E48FE090E088
:1032C000A70196010E949B1A215031094109510919
:1032D0005695479537952795EC85FD853083EE8586
:1032E000FF852083188EEC89FD89B082EA89FB89ED
:1032F000808180618083EA89FB8980818860808306
:10330000EA89FB89808180688083EA89FB898081E2
:103310008F7D8083DF91CF91FF90EF90DF90CF90F2
:10332000BF9008951F920F920FB60F9211242F9302
:103330008F939F93EF93FF93E0918404F091850422
:103340008081E0918A04F0918B0482FD12C090810B
:1033500080918D048F5F8F7320918E04821751F0BE
:10336000E0918D04F0E0EC58FB4F958F80938D0435
:1033700001C08081FF91EF919F918F912F910F90CC
:103380000FBE0F901F9018951F920F920FB60F92BD
:1033900011242F933F934F935F936F937F938F935A
:1033A0009F93AF93BF93EF93FF9384E794E00E94C2
:1033B0008E18FF91EF91BF91AF919F918F917F9167
:1033C0006F915F914F913F912F910F900FBE0F9092
:1033D0001F90189584E794E00E94531821E0892BF0
:1033E00009F420E0822F0895109277041092760459
:1033F00088EE93E0A0E0B0E08093780490937904A5
:10340000A0937A04B0937B0489E491E090937504CF
:103410008093740485EC90E0909381048093800401
:1034200084EC90E0909383048093820480EC90E09D
:10343000909385048093840481EC90E090938704BA
:103440008093860482EC90E09093890480938804B2
:1034500086EC90E090938B0480938A0410928D0404
:1034600010928E0410928F04109290040895089583
:103470000E9480170E94371A0E949200C0E8D8E18B
:103480000E94B1002097E1F30E948018F9CFCF92FB
:10349000DF92EF92FF920F931F93CF93DF936C0114
:1034A0007A01EB01E60EF71E00E010E0CE15DF0515
:1034B00061F06991D601ED91FC910190F081E02DD0
:1034C000C6010995080F191FF1CFC801DF91CF91EF
:1034D0001F910F91FF90EF90DF90CF9008956115AD
:1034E000710581F0DB010D900020E9F7AD0141503D
:1034F0005109461B570BDC01ED91FC910280F381D1
:10350000E02D099480E090E0089565E571E00C9469
:103510006F1A0F931F93CF93DF93EC010E946F1AE2
:103520008C01CE010E94851A800F911FDF91CF91EF
:103530001F910F910895A1E21A2EAA1BBB1BFD013A
:103540000DC0AA1FBB1FEE1FFF1FA217B307E40782
:10355000F50720F0A21BB30BE40BF50B661F771FDA
:10356000881F991F1A9469F76095709580959095BA
:103570009B01AC01BD01CF010895052E97FB1EF400
:1035800000940E94D41A57FD07D00E949B1A07FC92
:1035900003D04EF40C94D41A509540953095219553
:1035A0003F4F4F4F5F4F089590958095709561956F
:1035B0007F4F8F4F9F4F08950E94ED1AA59F900D4A
:1035C000B49F900DA49F800D911D11240895EE0FBE
:1035D000FF1F0590F491E02D0994A29FB001B39FC5
:1035E000C001A39F700D811D1124911DB29F700D0C
:1035F000811D1124911D0895CF93DF938230910591
:1036000010F482E090E0E0911305F091140520E0C1
:1036100030E0A0E0B0E0309739F1408151814817A7
:103620005907B8F04817590771F4828193811097B0
:1036300029F013969C938E9312972CC090931405A7
:103640008093130527C02115310531F04217530728
:1036500018F0A901DB0101C0EF019A01BD01DF01F2
:103660000280F381E02DD7CF21153105F9F0281B19
:10367000390B2430310580F48A819B8161157105F5
:1036800021F0FB019383828304C0909314058093FF
:103690001305FE01329644C0FE01E20FF31F819331
:1036A000919322503109398328833AC02091110522
:1036B00030911205232B41F4209102013091030136
:1036C00030931205209311052091000130910101E2
:1036D0002115310541F42DB73EB7409104015091B9
:1036E0000501241B350BE0911105F0911205E2173D
:1036F000F307A0F42E1B3F0B2817390778F0AC0115
:103700004E5F5F4F2417350748F04E0F5F1F5093F1
:103710001205409311058193919302C0E0E0F0E01F
:10372000CF01DF91CF910895CF93DF93009709F4F4
:1037300087C0FC01329713821282C0911305D09189
:103740001405209781F420813181280F391F809141
:103750001105909112058217930779F5F0931205E0
:10376000E09311056DC0DE0120E030E0AE17BF0729
:1037700050F412964D915C9113979D01411551059E
:1037800009F1DA01F3CFB383A28340815181840F21
:10379000951F8A179B0771F48D919C911197840F47
:1037A000951F02969183808312968D919C91139719
:1037B000938382832115310529F4F0931405E09356
:1037C00013053EC0D9011396FC93EE9312974D91C9
:1037D0005D91A40FB51FEA17FB0779F480819181F1
:1037E000840F951F0296D90111969C938E93828126
:1037F000938113969C938E931297E0E0F0E08A8178
:103800009B81009719F0FE01EC01F9CFCE010296E1
:1038100028813981820F931F209111053091120563
:103820002817390769F4309729F41092140510927B
:10383000130502C013821282D0931205C0931105A2
:10384000DF91CF910895FB01DC0104C08D910190BF
:10385000801921F441505040C8F7881B990B0895F6
:10386000FC018191861721F08823D9F799270895C3
:103870003197CF010895FB01DC014150504048F0E1
:1038800001900D920020C9F701C01D924150504097
:08389000E0F70895F894FFCF62
:10389800000015058000FFFFFFFF6001018A00841A
:1038A8000086008800810080006F00534420666114
:1038B800696C0063386B2E7761760000000000E8C1
:1038C80000FE00F0013801420119012F000000003C
:1038D80000510E471A00000000D118471A53186CFF
:1038E800185E18AF180D0A006E616E00696E6600EA
:0638F8006F7666002E0051
:00000001FF
